:020000040000FA
:100000002030830003018A0007309F00831203130E
:1000100085018601023062008101452885110511A4
:10002000851005101328851423288510051526280A
:10003000051105142F28051085140515292885108C
:10004000051185152C280618152813288618182838
:10005000152806191F281B28061C0E281F28810199
:10006000FF30F8003130F9003528FF300102031D60
:1000700035283A28F90B35283D28FF300102031DA9
:100080003D284228F80B3D281B28FF30810007300F
:080090006600003065000E2837
:0400980000340034FC
:02400E00FB3F76
:00000001FF
